:020000040000fa
:080000000002040000000000f2
:020000040000fa
:04000800b60300003b
:020000040000fa
:04000c00f8030000f5
:020000040000fa
:0400100038040000b0
:020000040000fa
:04001400d60300000f
:020000040000fa
:0400180018040000c8
:020000040000fa
:04001c00ee040000ee
:020000040000fa
:040020005804000080
:020000040000fa
:04002400ee040000e6
:020000040000fa
:04002800ee040000e2
:020000040000fa
:04002c00b804000014
:020000040000fa
:04003000ee040000da
:020000040000fa
:04003400ee040000d6
:020000040000fa
:04003800ee040000d2
:020000040000fa
:04003c00ee040000ce
:020000040000fa
:04004000ee040000ca
:020000040000fa
:04004400ee040000c6
:020000040000fa
:04004800ee040000c2
:020000040000fa
:04004c00ee040000be
:020000040000fa
:04005000ee040000ba
:020000040000fa
:04005400ee040000b6
:020000040000fa
:04005800ee040000b2
:020000040000fa
:04005c00ee040000ae
:020000040000fa
:04006000ee040000aa
:020000040000fa
:04006400ee040000a6
:020000040000fa
:04006800ee040000a2
:020000040000fa
:04006c00ee0400009e
:020000040000fa
:04007000ee0400009a
:020000040000fa
:04007400ee04000096
:020000040000fa
:04007800ee04000092
:020000040000fa
:04007c00ee0400008e
:020000040000fa
:04008000ee0400008a
:020000040000fa
:04008400ee04000086
:020000040000fa
:04008800ee04000082
:020000040000fa
:04008c00ee0400007e
:020000040000fa
:04009000ee0400007a
:020000040000fa
:0400940072030000f3
:020000040000fa
:04009800120300004f
:020000040000fa
:04009c00ee0400006e
:020000040000fa
:0400a000ee0400006a
:020000040000fa
:0400a400ee04000066
:020000040000fa
:0400a800ee04000062
:020000040000fa
:0400ac00ee0400005e
:020000040000fa
:0400b000ee0400005a
:020000040000fa
:0400b400ee04000056
:020000040000fa
:0400b800ee04000052
:020000040000fa
:0400bc00ee0400004e
:020000040000fa
:0400c000ee0400004a
:020000040000fa
:0400c400ee04000046
:020000040000fa
:0400c800ee04000042
:020000040000fa
:0400cc00ee0400003e
:020000040000fa
:0400d000ee0400003a
:020000040000fa
:0400d400ee04000036
:020000040000fa
:0400d800ee04000032
:020000040000fa
:0400dc00ee0400002e
:020000040000fa
:0400e000ee0400002a
:020000040000fa
:0400e400ee04000026
:020000040000fa
:0400e800ee04000022
:020000040000fa
:0400ec00ee0400001e
:020000040000fa
:0400f0009803000071
:020000040000fa
:0400f400ee04000016
:020000040000fa
:0400f800ee04000012
:020000040000fa
:0400fc00ee0400000e
:020000040000fa
:04010000ee04000009
:020000040000fa
:04010400ee04000005
:020000040000fa
:04010800ee04000001
:020000040000fa
:04010c00ee040000fd
:020000040000fa
:04011000ee040000f9
:020000040000fa
:04011400ee040000f5
:020000040000fa
:04011800ee040000f1
:020000040000fa
:04011c00ee040000ed
:020000040000fa
:04012000ee040000e9
:020000040000fa
:04012400ee040000e5
:020000040000fa
:04012800ee040000e1
:020000040000fa
:04012c00ee040000dd
:020000040000fa
:04013000ee040000d9
:020000040000fa
:040134009204000031
:020000040000fa
:04013800ee040000d1
:020000040000fa
:04013c00ee040000cd
:020000040000fa
:04014000ee040000c9
:020000040000fa
:04014400ee040000c5
:020000040000fa
:04014800ee040000c1
:020000040000fa
:04014c00ee040000bd
:020000040000fa
:04015000ee040000b9
:020000040000fa
:04015400ee040000b5
:020000040000fa
:04015800ee040000b1
:020000040000fa
:04015c00ee040000ad
:020000040000fa
:04016000ee040000a9
:020000040000fa
:04016400ee040000a5
:020000040000fa
:04016800ee040000a1
:020000040000fa
:04016c00ee0400009d
:020000040000fa
:04017000ee04000099
:020000040000fa
:04017400ee04000095
:020000040000fa
:04017800ee04000091
:020000040000fa
:04017c00ee0400008d
:020000040000fa
:04018000ee04000089
:020000040000fa
:04018400ee04000085
:020000040000fa
:04018800ee04000081
:020000040000fa
:04018c00ee0400007d
:020000040000fa
:04019000ee04000079
:020000040000fa
:04019400ee04000075
:020000040000fa
:04019800ee04000071
:020000040000fa
:04019c00ee0400006d
:020000040000fa
:0401a000ee04000069
:020000040000fa
:0401a400ee04000065
:020000040000fa
:0401a800ee04000061
:020000040000fa
:0401ac00ee0400005d
:020000040000fa
:0401b000ee04000059
:020000040000fa
:0401b400ee04000055
:020000040000fa
:0401b800ee04000051
:020000040000fa
:0401bc00ee0400004d
:020000040000fa
:0401c000ee04000049
:020000040000fa
:0401c400ee04000045
:020000040000fa
:0401c800ee04000041
:020000040000fa
:0401cc00ee0400003d
:020000040000fa
:0401d000ee04000039
:020000040000fa
:0401d400ee04000035
:020000040000fa
:0401d800ee04000031
:020000040000fa
:0401dc00ee0400002d
:020000040000fa
:0401e000ee04000029
:020000040000fa
:0401e400ee04000025
:020000040000fa
:0401e800ee04000021
:020000040000fa
:0401ec00ee0400001d
:020000040000fa
:0401f000ee04000019
:020000040000fa
:0401f400ee04000015
:020000040000fa
:0401f800ee04000011
:020000040000fa
:0401fc00ee0400000d
:020000040000fa
:04020000ee04000008
:020000040000fa
:04020400ee04000004
:020000040000fa
:04020800ee04000000
:020000040000fa
:04020c00ee040000fc
:020000040000fa
:04021000ee040000f8
:020000040000fa
:04021400ee040000f4
:020000040000fa
:04021800ee040000f0
:020000040000fa
:04021c00ee040000ec
:020000040000fa
:04022000ee040000e8
:020000040000fa
:04022400ee040000e4
:020000040000fa
:04022800ee040000e0
:020000040000fa
:04022c00ee040000dc
:020000040000fa
:04023000ee040000d8
:020000040000fa
:04023400ee040000d4
:020000040000fa
:04023800ee040000d0
:020000040000fa
:04023c00ee040000cc
:020000040000fa
:04024000ee040000c8
:020000040000fa
:04024400ee040000c4
:020000040000fa
:04024800ee040000c0
:020000040000fa
:04024c00ee040000bc
:020000040000fa
:04025000ee040000b8
:020000040000fa
:04025400ee040000b4
:020000040000fa
:04025800ee040000b0
:020000040000fa
:04025c00ee040000ac
:020000040000fa
:04026000ee040000a8
:020000040000fa
:04026400ee040000a4
:020000040000fa
:04026800ee040000a0
:020000040000fa
:04026c00ee0400009c
:020000040000fa
:04027000ee04000098
:020000040000fa
:04027400ee04000094
:020000040000fa
:04027800ee04000090
:020000040000fa
:04027c00ee0400008c
:020000040000fa
:04028000ee04000088
:020000040000fa
:04028400ee04000084
:020000040000fa
:04028800ee04000080
:020000040000fa
:04028c00ee0400007c
:020000040000fa
:04029000ee04000078
:020000040000fa
:04029400ee04000074
:020000040000fa
:04029800ee04000070
:020000040000fa
:04029c00ee0400006c
:020000040000fa
:0402a000ee04000068
:020000040000fa
:0402a400ee04000064
:020000040000fa
:0402a800ee04000060
:020000040000fa
:0402ac00ee0400005c
:020000040000fa
:0402b000ee04000058
:020000040000fa
:0402b400ee04000054
:020000040000fa
:0402b800ee04000050
:020000040000fa
:0402bc00ee0400004c
:020000040000fa
:0402c000ee04000048
:020000040000fa
:0402c400ee04000044
:020000040000fa
:0402c800ee04000040
:020000040000fa
:0402cc00ee0400003c
:020000040000fa
:0402d000ee04000038
:020000040000fa
:0402d400ee04000034
:020000040000fa
:0402d800ee04000030
:020000040000fa
:0402dc00ee0400002c
:020000040000fa
:0402e000ee04000028
:020000040000fa
:0402e400ee04000024
:020000040000fa
:0402e800ee04000020
:020000040000fa
:0402ec00ee0400001c
:020000040000fa
:0402f000ee04000018
:020000040000fa
:0402f400ee04000014
:020000040000fa
:0402f800ee04000010
:020000040000fa
:0402fc00ee0400000c
:020000040000fa
:04030000ee04000007
:020000040000fa
:04030400ee04000003
:020000040000fa
:04030800ee040000ff
:020000040000fa
:04030c00ee040000fb
:020000040000fa
:04031000ee040000f7
:020000040000fa
:04031400ee040000f3
:020000040000fa
:04031800ee040000ef
:020000040000fa
:04031c00ee040000eb
:020000040000fa
:04032000ae03000028
:020000040000fa
:04032400ee040000e3
:020000040000fa
:04032800ee040000df
:020000040000fa
:04032c00ee040000db
:020000040000fa
:04033000ee040000d7
:020000040000fa
:04033400ee040000d3
:020000040000fa
:100400004f0521000eff26000e01880000000000ad
:10041000000020000000e000020032000001200087
:100420002002880014000700930107000000e0008c
:1004300003003a0080f6200001002000020037008f
:100440000000200001002000810f70000100320038
:100450000f000700000020000000e0000200320052
:1004600000000200000000005e0902000000000021
:100470000040da000000fe00200020000000e00044
:1004800002003200100020009001880000000600e9
:10049000a1028800800478000000eb001f003700f4
:1004a000e284440054a0b4009905ba00e2844400f8
:1004b00054a0b4009906ba00e284440054a0b400e9
:1004c0000006eb00476fde00fd07b200ae018800ba
:1004d000636ce10003003a000ad801000000eb0061
:1004e0000e003700606ce10008003a00004deb00a0
:1004f0000a05e800020039003420ec000af0a000f0
:100500008b05e900f9ff3e00040037006168e10057
:10051000010032000086eb000b00070019c7ba008b
:100520001905ba000e04e00003003a000a00e000da
:10053000dbff3a0000000600fe07b200ae028800b2
:100540008a047800f5ff37000cd0a300e20f4d00bd
:100550001c003b0089027800354dba000a05e8000e
:10056000020039003420ec000af0a0008b05e900fd
:100570000f003200254dba000a05e80002003900dc
:100580003420ec000af0a0008b05e90008003200de
:100590000c00e0000600320015cdba000a05e800a4
:1005a000020039003420ec000af0a0008b05e900bd
:1005b0008984e80054a0b4000b00e000e2ff3a0098
:1005c000000006009902ba00055d78008b05e9007d
:1005d000f7ff3200c82ade00055d78008b05e900d0
:1005e000f3ff32000c00e000f1ff320019ddba0029
:1005f000eeff3700a605040000000000c40504005b
:1006000000000000d60c040000000000da0d040019
:10061000000000000609040000000000f6080400c5
:10062000000000003600f800809fbe00829fbe00e0
:10063000849fbe00869fbe000000fa0050808000ac
:100640000000e00002003200508080000000010045
:100650003180800020808000808f500002003a00ae
:100660002388a900180037000388a900100037006c
:1006700030808000904078008180fb0081138800ea
:100680000000e8003080880031808000f003210005
:10069000808f500002003a00600321003080880003
:1006a0003180800020808000808f50000500320063
:1006b00030138000700060000000e000ecff3200aa
:1006c00001003700000000000080fa004f03be0068
:1006d0004f02be004f01be004f00be003600f900c1
:1006e000004006003600f800809fbe00829fbe00da
:1006f000849fbe00869fbe000000fa0060808000dc
:100700000000e00002003200608080000000010074
:100710000368a9000080fa004f03be004f02be002c
:100720004f01be004f00be003600f9000040060039
:10073000801f78000000fa00201380006200600033
:100740000000e000010032006422a9000648a90070
:100750000080fa004f007800004006000000fa0018
:1007600017c8a9000080fa00004006003600f80013
:10077000809fbe00829fbe00849fbe00869fbe00f9
:100780000000fa00c028a9000000eb0016060700d0
:100790000080fa004f03be004f02be004f01be00b2
:1007a0004f00be003600f900004006003600f80099
:1007b000809fbe00829fbe00849fbe00869fbe00b9
:1007c0000000fa000d060700c048a9001000200034
:1007d000050607000080fa004f03be004f02be006e
:1007e0004f01be004f00be003600f9000040060079
:1007f0003600f800809fbe00829fbe00849fbe002e
:10080000869fbe000000fa00c068a90020002000fa
:10081000f50507000080fa004f03be004f02be003e
:100820004f01be004f00be003600f9000040060038
:100830003600f800809fbe00829fbe00849fbe00ed
:10084000869fbe000000fa00c088a900300020008a
:10085000e50507000080fa004f03be004f02be000e
:100860004f01be004f00be003600f90000400600f8
:100870003600f800809fbe00829fbe00849fbe00ad
:10088000869fbe000000fa00c608a9007000200084
:10089000d50507000080fa004f03be004f02be00de
:1008a0004f01be004f00be003600f90000400600b8
:1008b0003600f800809fbe00829fbe00849fbe006d
:1008c000869fbe000000fa00214680000010200034
:1008d000008060000000e00003003200c508a900ad
:1008e000c0002000c00507002046800070006000a6
:1008f0000000e00003003200c488a900a00020002e
:10090000b905070020468000610060000000e0009b
:1009100003003200c408a900b0002000b20507009f
:10092000ffff37003600f800809fbe00829fbe00a8
:10093000849fbe00869fbe000000fa008080800079
:100940000000e00002003200808080000000010012
:100950000868a9000080fa004f03be004f02be00e5
:100960004f01be004f00be003600f90000400600f7
:100970003600f800809fbe00829fbe00849fbe00ac
:10098000869fbe000000fa00908080000000e0001a
:10099000020032009080800000000100300521003c
:1009a000104078008040e8003005210001487800c0
:1009b0002005210011c0b300014878000028a900db
:1009c0000080fa004f03be004f02be004f01be0080
:1009d0004f00be003600f900004006000040da007b
:1009e0000000fe000a00fa00e401470080097800d8
:1009f0006600470001087800680047000208780098
:100a00000e80e800e6004700110878000000eb00c7
:100a1000000f78000f00370000000000930007006f
:100a20000004a2000004e000fcff3a000e80e80091
:100a300010007800104078008e80e8009100780067
:100a40000101e8008e80e800820878006700070056
:100a50001e0fe80068004700100078009e00780034
:100a6000808f5000ecff39006800470010007800cc
:0c0a70000080fa000000060000000500f5
:020000040000fa
:100a7c000000fa002388a9002368a90000082000c0
:100a8c00001388006222ef006422ef002002200095
:100a9c003013880090012000401388006a22ef0078
:100aac007422ef007622ef007822ef007a22ef001a
:100abc007c22ef007e22ef008022ef008222ef00ea
:100acc008422ef0060032100308088006003210045
:100adc0020808800f003210010808800f0032100a2
:100aec00008088000870ef00605a200008000700a2
:100afc00405c2000150007002368a80061e2a800f4
:100b0c0060a2a8006082a8000080fa000000060025
:100b1c000200fa00000f78001e0078000000e000d0
:100b2c0003003a00605a2000508088000200370011
:100b3c009e007800518088000080fa0000000600ba
:100b4c000000fa000080fa00000006000200fa0023
:100b5c00000f78001e0078000000e00003003a004f
:100b6c00405c200060808800020037009e00780006
:100b7c00618088000080fa00000006000000fa0086
:100b8c000080fa00000006000200fa000040eb00b2
:100b9c00004f780000000000118080000080800071
:100bac00808f5000fcff320010808000104f7800c6
:100bbc00108080000000e800108088001180800008
:100bcc0080042100808f500002003a00f0032100c5
:100bdc00108088001e4078000080fa00000006009b
:100bec000200fa00004f7800000000001c00070013
:100bfc000004a2000004e000fcff3a00208080000a
:100c0c001e487800208080000000e80020808800ca
:100c1c0021808000f0032100808f500002003a00f8
:100c2c0060032100208088002388a8000080fa003f
:100c3c00000006000000fa00118080000080800097
:100c4c000080680000f0a7000000ea000000ea0045
:100c5c004f00de00004078000080fa000000060023
:100c6c000400fa000e80e800318080000108780052
:100c7c00218080000e80e80010007800808f5000ea
:100c8c00070031000e80e800900078002080800082
:100c9c00008050000000e900000f780006003700cb
:100cac000e80e800900078002080800000805000ca
:100cbc0068004000000f78001e00780000f0a700cc
:100ccc000000ea000000ea004f00de00004078005f
:100cdc000080fa00000006000000fa00218080006d
:100cec0030808000808f500009003a002113800072
:100cfc00000820000080600000f0a7000000ea005f
:100d0c000000ea004f00de000040780001003700d0
:100d1c000040eb000080fa00000006000400fa001e
:100d2c000e80e800018080000108780011808000ae
:100d3c000e80e80010007800810f50000700310091
:100d4c000e80e80090007800108080000080500039
:100d5c0069004000000f7800040037000e80e800a6
:100d6c009000780010808000008f5000f00f200061
:100d7c009e007800808f50000200360000c0eb000f
:100d8c00020037001e007800004078000080fa0056
:100d9c00000006000400fa000e80e800318080009c
:100dac0001087800218080000e80e8001000780097
:100dbc00808f5000070031000e80e8009000780012
:100dcc0020808000008050000000e900000f7800b7
:100ddc00060037000e80e80090007800208080002c
:100dec000080500068004000000f7800f00f2000d9
:100dfc009e007800808f50000200360000c0eb008f
:100e0c00020037001e007800004078000080fa00d5
:100e1c00000006000800fa00640147000009780091
:100e2c006600470001087800bcff07000080fb004b
:100e3c00000f780066004700100078009e0f5000ed
:100e4c000200310066004700100f78008000eb00b4
:100e5c000e80e800010878000e0037004aff0700fa
:100e6c00e400470091007800804878006400470057
:100e7c00100078008000e80064004700010878004a
:100e8c000e80e800100078008000e8000e80e8007a
:100e9c00010878000e80e800100078009e0f5000ca
:100eac00eeff39001e0078000080fa0000000600fa
:100ebc000800fa006401470000097800660047004a
:100ecc0001087800b3ff07000080fb00000f7800da
:100edc0066004700100078009e0f500002003100a1
:100eec0066004700100f78008000eb000e80e800d1
:100efc00010878000e0037006400470010007800ed
:100f0c0010407800e4004700910078000101e800ef
:100f1c00e40047008208780031ff07000e80e800eb
:100f2c00100078008000e8000e80e80001087800ce
:100f3c000e80e800100078009e0f5000eeff390084
:100f4c001e0078000080fa00000006000400fa0081
:100f5c000000eb00000f780070ff07008e80e800a7
:100f6c00804878008bff0700e3004700804878003a
:100f7c000e80e800104078000080fb000000e000cc
:100f8c0003003200e90f5000030032000400370068
:100f9c001e20a000040037001e00a0000200370035
:100fac001e10a000000000006300470010407800f5
:100fbc000080fb000000e00003003200e90f50004d
:100fcc0003003200040037001e30a000020037007e
:100fdc001e40a000000000001e0078000080fa00f7
:100fec00000006000400fa008e80e80080087800fb
:100ffc00118080000e80e80010007800008f400007
:10100c00020037009e007800698f50008004210098
:10101c009e007800808f5000faff3e001e00780082
:10102c00104078000080fa00000006000000fa0072
:10103c003aff07000080fb000000e9004f00de00d3
:10104c00004078000080fa00000006000000fa0062
:10105c0050ff07000080fb000000e9004f00de009d
:10106c00004078000080fa00000006000400fa003e
:10107c00301380008000eb00008fbe001e00be000d
:10108c00c001dd0002002000201380008000eb0076
:10109c0000007100818071000080fa0000000600e1
:1010ac000000fa003bff07000004e00010003200d3
:1010bc003180800020808000808f50000600360038
:1010cc0030808000800078002080800000805000fc
:1010dc000000e900070037003080800080007800b5
:1010ec002080800000805000680040000100370024
:1010fc000000eb000080fa00000006000000fa007f
:10110c0006ff07000004e000100032001180800090
:10111c0000808000808f5000060036001080800018
:10112c008000780000808000008050000000e90002
:10113c00070037001080800080007800008080005d
:10114c000080500068004000010037000000eb00f8
:10115c000080fa00000006000000fa0061e2a8001e
:10116c0060a2a8006082a8000080fa0000000600bf
:10117c000000fa0061e2a90060a2a9006082a90047
:10118c000080fa00000006000200fa00000f780050
:10119c001e007800e10f500003003a002be3a8007a
:1011ac000000000001003700000000000080fa0081
:1011bc00000006000200fa00000f78001e00780004
:1011cc00e10f500003003a002be3a90000000000df
:1011dc0001003700000000000080fa00000006004b
:1011ec000000fa00a0042100104078008040e800c4
:1011fc00a0042100014878000080fa0000000600dd
:10120c000000fa0004003700601380008040780072
:10121c001005210001487800301380006200600046
:10122c000000e000f8ff320010c0b30014f0b7006b
:10123c000080fa00000006000c00fa00640247006f
:10124c00008abe00680047000288be006000b8003b
:10125c00008fbe00640047001000be00c001dd001e
:10126c0002002000680047001002be004828dd0084
:10127c00c820de00810070004820dd0000017100f4
:10128c0081817100680047001000780000407800f0
:10129c0000c0ea000080fb008000eb00001f710022
:1012ac00019771001e00be000080fa0000000600cd
:1012bc000400fa00889fbe002e03070060902000f7
:1012cc0022fe0700ca00070014d0bf000004e00093
:1012dc0014003200408280000000e00011003a004f
:1012ec00100521009040780000052100014878008d
:1012fc0000052100104078000080fb008000eb000e
:10130c000001be00700f200001002000caff070082
:10131c0060828800718288001470ef001000200039
:10132c004082880040828000e60f5000730032003b
:10133c00e60f500009003e00e10f5000250032007e
:10134c00e10f50000e003900e20f50002d0032006a
:10135c00e30f50003a003200a3003700e80f5000b2
:10136c007f003200e80f50006d003900e90f50008b
:10137c0084003200ee0f5000920032009a003700c9
:10138c00a173800000202000008060000000e000bd
:10139c000f003a0000052100104078000080fb008f
:1013ac008000eb000001be00700f20000100200047
:1013bc00a1ff070060828800718288000050230022
:1013cc00c1002000f70207001000200040828800b6
:1013dc00860037009a000700a00421001040780016
:1013ec00f04f500006003a008f000700a0042100c7
:1013fc008040eb00014878002000200040828800eb
:10140c007a003700f3010700a00421001040780097
:10141c00e84f500009003a00f6010700a004210033
:10142c008040eb0001487800b004210001c2b300f9
:10143c000148780030002000408288006b003700a3
:10144c00b0042100104078000004e00025003200b8
:10145c00b0042100104078000080fb000000e9007f
:10146c0000017800100020000100200082017800ab
:10147c008301e90003003300000040008180480034
:10148c00fbff3700008fbe006282800073828000f9
:10149c001e00be0002027800030178008001780073
:1014ac0081007800030062008100610081047800f3
:1014bc00000478000800be00e00f5000e08f5800d8
:1014cc00040032005e0007006000200040828800ab
:1014dc00060037005a000700800020004082880078
:1014ec0002003700e000200040828800a0042100a8
:1014fc008040eb00014878003c003700a00421003c
:10150c0010407800e14f500004003a001000200019
:10151c0028ff07007000200040828800330037004d
:10152c00a004210010407800e44f50000b003a005a
:10153c00a00421008040eb0001487800ad010700b9
:10154c00b0042100104078008040e900b004210074
:10155c0001487800300020004082880023003700ca
:10156c00a004210010407800e14f500004003a0024
:10157c00100020000fff0700900020004082880020
:10158c001a003700a004210010407800e24f5000f0
:10159c000b003a00a00421008040eb0001487800c9
:1015ac0094010700b0042100104078008040e9004d
:1015bc00b0042100014878003000200040828800ef
:1015cc000a0037001e000700a0042100104078001c
:1015dc00e14f500003003a00130007000000eb003d
:1015ec0040828800000000000000000036ff370039
:1015fc000000fa00608f20006e0107000a0007004f
:10160c00a00421008040eb00014878000000eb00b2
:10161c00408288000005210001ccb300014878000d
:10162c000080fa00000006000000fa0071010700bb
:10163c0010002000dffe07000080fa00000006000a
:10164c000000fa006301070010002000cefe070026
:10165c000080fa00000006000000fa00007c800008
:10166c000080fa00000006000200fa00faff0700f2
:10167c00000f78001e007800240007000004e00032
:10168c0002003200000028007d0007001e007800d8
:10169c002c0007000004e0000200320000002400cf
:1016ac00770007001e007800360007000004e000f9
:1016bc000200320000202000710007001e0078009c
:1016cc00400007000004e000020032000008200087
:1016dc006b0007001e0078004a0007000004e000c1
:1016ec000200320000042000650007001e00780094
:1016fc00540007000004e00002003200000120004a
:10170c005f0007000080fa00000006000400fa00e9
:10171c008e80e800800878000040eb00004f7800d5
:10172c000e80e800100078000000e00002003d0090
:10173c0010c0b300004f78001e4078000080fa0003
:10174c00000006000400fa008e80e8008008780093
:10175c000040eb00004f78000e80e800900078000d
:10176c0000002400008060000000e0000200320055
:10177c0010c0b300004f78001e4078000080fa00c3
:10178c00000006000400fa008e80e8008008780053
:10179c000040eb00004f78000e80e80090007800cd
:1017ac0000202000008060000000e00002003200f9
:1017bc0010c0b300004f78001e4078000080fa0083
:1017cc00000006000400fa008e80e8008008780013
:1017dc000040eb00004f78000e80e800900078008d
:1017ec0000082000008060000000e00002003200d1
:1017fc0010c0b300004f78001e4078000080fa0043
:10180c00000006000400fa008e80e80080087800d2
:10181c000040eb00004f78000e80e800900078004c
:10182c0000042000008060000000e0000200320094
:10183c0010c0b300004f78001e4078000080fa0002
:10184c00000006000400fa008e80e8008008780092
:10185c000040eb00004f78000e80e800100078008c
:10186c00700060000000e0000200320010c0b30005
:10187c00004f78001e4078000080fa00000006003f
:10188c000200fa00000f78001e80ea00017c800044
:10189c0001006000007c88000080fa000000060057
:1018ac000000fa00802fef000080fa000000060014
:1018bc000000fa000023ef000223ef000423ef00e6
:1018cc000623ef000823ef000001200050188800c9
:1018dc000c23ef000e23ef001023ef001223ef0078
:1018ec001423ef001623ef001823ef001a23ef0048
:1018fc001c23ef001e23ef002023ef002223ef0018
:10190c002423ef002623ef002823ef002c23ef00e5
:10191c002e23ef003023ef00c00120009019880027
:10192c0080002000a01988003623ef003823ef0038
:10193c003a23ef003c23ef003e23ef004023ef005f
:10194c004223ef004423ef004623ef004823ef002f
:10195c004a23ef004c23ef0090062000701a8800f9
:10196c005023ef00100d2000901a88005423ef0034
:10197c005623ef005823ef005a23ef005c23ef00af
:10198c0060cd2000090007000868a9002868a8009d
:10199c0080002800501988000080fa000000060022
:1019ac000000fa000080fa00000006000200fa00b5
:1019bc00000f78001e007800808088000080fa00fc
:1019cc00000006000000fa000080fa00000006008b
:1019dc000000fa00a1408000002020000080600080
:1019ec000000e00002003200f6ff07001528a900f5
:1019fc000080fa00000006000000fa000080fa00e7
:101a0c00000006000000fa00a14080000040200009
:101a1c00008060000000e00002003200f6ff0700ca
:101a2c001548a9000080fa00000006000000fa002a
:101a3c000080fa00000006000000fa00a1408000bf
:101a4c0000802000008060000000e00002003200f6
:101a5c00f6ff07001568a9000080fa0000000600d8
:101a6c000000fa000080fa00000006000000fa00f6
:101a7c00a140800000002100008060000000e00018
:101a8c0002003200f6ff07001588a9000080fa005a
:101a9c00000006000000fa000080fa0000000600ba
:101aac000000fa00a14080000000220000806000cd
:101abc000000e00002003200f6ff070015a8a900a4
:101acc000080fa00000006000000fa000080fa0016
:101adc00000006000000fa00a14080000000240075
:101aec00008060000000e00002003200f6ff0700fa
:101afc0015c8a9000080fa00000006000000fa00da
:101b0c000421ef00508c2000400888000021ef00d9
:101b1c00908080000000e00002003a00a0dd200070
:101b2c00240007000028a9002028a8002005210077
:101b3c008040eb00014878000080fa0000000600ad
:101b4c000200fa00000f78009e007800410888001f
:101b5c00200521008040eb00014878000080fa004d
:101b6c00000006000000fa00400880000080fa0027
:101b7c00000006000200fa00000f78009e007800ba
:101b8c0021088800200521008040eb0001487800e6
:101b9c000080fa00000006000000fa002008800017
:101bac000080fa00000006000000fa000080fa0035
:101bbc00000006000200fa00000f78002028a9009f
:101bcc009e007800918088002028a8000080fa00f0
:101bdc00000006000000fa00200521008040eb0008
:101bec00014878002028a80001e1a8000080fa0034
:101bfc00000006000000fa0001e1a9002028a9005d
:101c0c000080fa00000006000200fa002005210006
:101c1c00104f78001e4078000004e00003003200f2
:101c2c00200521008040eb00014878001e40780020
:101c3c000080fa00000006000000fa0030052100c8
:101c4c00104078000080fb000080fa0000000600c5
:101c5c000000fa00300521008040eb0001487800bc
:101c6c000080fa00000006000000fa00062eef00cb
:101c7c00222eef003e2eef0000012400d0728800cf
:101c8c00762eef00f001200010708800d0ff2300aa
:101c9c00f07088000080eb00d0718800f0fe2f00ff
:101cac00b07288000080eb00907388000c2eef005f
:101cbc00282eef00442eef00602eef007c2eef005c
:101ccc000a2eef00262eef00422eef005e2eef00c4
:101cdc007a2eef00082eef00242eef00402eef009e
:101cec005c2eef00782eef00f001200000708800d1
:101cfc00c0392000e0708800f00c2000c071880012
:101d0c0000c02200a0728800f000200080738800c0
:101d1c000000eb0051052000b1468800a10a20000c
:101d2c00b146880000688800216d800000fc2f00ff
:101d3c00008060003000b300206d880030c4b30018
:101d4c002aedb7000080200051052000b146880024
:101d5c00a10a2000b1468800006888000080fa00c3
:101d6c00000006000000fa0010002300307c880000
:101d7c0060092000407c88008c2fef0010042000ac
:101d8c00507c880010102000707c880060092000b6
:101d9c00807c880010042000907c88009a2fef0033
:101dac00b82fef00ba2fef00be2fef00002def0081
:101dbc00a02fef00a42fef00a62fef00a82fef000d
:101dcc00aa2fef00ae2fef00b02fef00b22fef00d5
:101ddc002200200080072000a109200053f82000d9
:101dec008049780081497800824978000001eb0035
:101dfc00600420007105200043f820008049780021
:101e0c0081497800824978000080fa0000000600c1
:101e1c000000fa00707c8000ee800a0000000000d8
:101e2c000080fb0000f0a7000000ea000000ea00c0
:101e3c004f00de00004078000080fa000000060031
:101e4c000000fa0001438000f0ff280000806000d1
:101e5c0000c0a00000438800f1448000f08f2f00e8
:101e6c00008060000080a000f04488007142800077
:101e7c0080ff2f00008060000000a00070428800ee
:101e8c00c1428000f08f2f00008060000080a00015
:101e9c00c042880061428000f0ff28000080600092
:101eac0000c0a0006042880001428000f0f82f00c2
:101ebc00008060000040a000004288000080fa0012
:041ecc00000006000c
:020000040000fa
:101ed000361000001200000080000000001000001a
:101ee0000e0000008000000016100000200000001e
:101ef000800000000e1000000200000082000000c0
:101f0000ffff000010100000020000008000000031
:101f100052100000020000008000000012100000bb
:101f20000200000080000000481000000a000000cd
:101f3000800000001410000002000000800000007b
:041f4000000000009d
:020000040000fa
:101f44000200fa00000f780021028000200f200018
:101f5400008060001e007000200288000080fa00eb
:101f6400000006000000fa00c3e8a800000000001a
:101f7400000000000080fa00000006000000fa00e3
:101f84003bff070079ff0700afff0700bafa07001d
:101f940049fe0700dbfe0700f2ff070000022000f5
:0c1fa400e7ff07000080fa0000000600c4
:020000040000fa
:101fb000f03fb1000180b10006003500ee030900da
:101fc00000000000403fb1000180b100fbff3d0078
:101fd0001000b000203fb000020035000080090072
:081fe0000000000000000600f3
:020000040000fa
:101fe8000200fa00000f78009e00780071808800d7
:101ff800ffff37000000fa00600121008007780029
:10200800e0022100000188000080fa0000000600bc
:020000040000fa
:020000040005f5
:047e0000ffffff0081
:020000040000fa
:020000040005f5
:047e2000ffffff0061
:020000040000fa
:020000040005f5
:047e30007affff00d6
:020000040000fa
:020000040005f5
:047e3800b9ffff008f
:020000040000fa
:020000040005f5
:047e40007f7fff0041
:020000040000fa
:020000040005f5
:047e4800ffffff0039
:020000040000fa
:020000040005f5
:047e5000ddffff0053
:020000040000fa
:020000040005f5
:047e58000000ff0027
:020000040000fa
:020000040005f5
:047e60000000ff001f
:020000040000fa
:020000040005f5
:047e68000000ff0017
:020000040000fa
:020000040005f5
:047e70000000ff000f
:020000040000fa
:020000040005f5
:047e7800ffffff0009
:020000040000fa
:020000040005f5
:047e8000fffcff0004
:020000040000fa
:020000040005f5
:047e8800ffffff00f9
:020000040000fa
:020000040005f5
:047ff800ffffff0088
:020000040000fa
:020000040100f9
:04300000ffffff00cf
:00000001FF
