:020000040000fa
:080000000002040000000000f2
:020000040000fa
:0400080006030000eb
:020000040000fa
:04000c0048030000a5
:020000040000fa
:040010008803000061
:020000040000fa
:0400140026030000bf
:020000040000fa
:040018006803000079
:020000040000fa
:04001c003e0400009e
:020000040000fa
:04002000a803000031
:020000040000fa
:040024003e04000096
:020000040000fa
:040028003e04000092
:020000040000fa
:04002c0008040000c4
:020000040000fa
:040030003e0400008a
:020000040000fa
:040034003e04000086
:020000040000fa
:040038003e04000082
:020000040000fa
:04003c003e0400007e
:020000040000fa
:040040003e0400007a
:020000040000fa
:040044003e04000076
:020000040000fa
:040048003e04000072
:020000040000fa
:04004c003e0400006e
:020000040000fa
:040050003e0400006a
:020000040000fa
:040054003e04000066
:020000040000fa
:040058003e04000062
:020000040000fa
:04005c003e0400005e
:020000040000fa
:040060003e0400005a
:020000040000fa
:040064003e04000056
:020000040000fa
:040068003e04000052
:020000040000fa
:04006c003e0400004e
:020000040000fa
:040070003e0400004a
:020000040000fa
:040074003e04000046
:020000040000fa
:040078003e04000042
:020000040000fa
:04007c003e0400003e
:020000040000fa
:040080003e0400003a
:020000040000fa
:040084003e04000036
:020000040000fa
:040088003e04000032
:020000040000fa
:04008c003e0400002e
:020000040000fa
:040090003e0400002a
:020000040000fa
:040094003e04000026
:020000040000fa
:040098003e04000022
:020000040000fa
:04009c003e0400001e
:020000040000fa
:0400a0003e0400001a
:020000040000fa
:0400a4003e04000016
:020000040000fa
:0400a8003e04000012
:020000040000fa
:0400ac003e0400000e
:020000040000fa
:0400b0003e0400000a
:020000040000fa
:0400b4003e04000006
:020000040000fa
:0400b8003e04000002
:020000040000fa
:0400bc003e040000fe
:020000040000fa
:0400c0003e040000fa
:020000040000fa
:0400c4003e040000f6
:020000040000fa
:0400c8003e040000f2
:020000040000fa
:0400cc003e040000ee
:020000040000fa
:0400d0003e040000ea
:020000040000fa
:0400d4003e040000e6
:020000040000fa
:0400d8003e040000e2
:020000040000fa
:0400dc003e040000de
:020000040000fa
:0400e0003e040000da
:020000040000fa
:0400e4003e040000d6
:020000040000fa
:0400e8003e040000d2
:020000040000fa
:0400ec003e040000ce
:020000040000fa
:0400f0003e040000ca
:020000040000fa
:0400f4003e040000c6
:020000040000fa
:0400f8003e040000c2
:020000040000fa
:0400fc003e040000be
:020000040000fa
:040100003e040000b9
:020000040000fa
:040104003e040000b5
:020000040000fa
:040108003e040000b1
:020000040000fa
:04010c003e040000ad
:020000040000fa
:040110003e040000a9
:020000040000fa
:040114003e040000a5
:020000040000fa
:040118003e040000a1
:020000040000fa
:04011c003e0400009d
:020000040000fa
:040120003e04000099
:020000040000fa
:040124003e04000095
:020000040000fa
:040128003e04000091
:020000040000fa
:04012c003e0400008d
:020000040000fa
:040130003e04000089
:020000040000fa
:04013400e2030000e2
:020000040000fa
:040138003e04000081
:020000040000fa
:04013c003e0400007d
:020000040000fa
:040140003e04000079
:020000040000fa
:040144003e04000075
:020000040000fa
:040148003e04000071
:020000040000fa
:04014c003e0400006d
:020000040000fa
:040150003e04000069
:020000040000fa
:040154003e04000065
:020000040000fa
:040158003e04000061
:020000040000fa
:04015c003e0400005d
:020000040000fa
:040160003e04000059
:020000040000fa
:040164003e04000055
:020000040000fa
:040168003e04000051
:020000040000fa
:04016c003e0400004d
:020000040000fa
:040170003e04000049
:020000040000fa
:040174003e04000045
:020000040000fa
:040178003e04000041
:020000040000fa
:04017c003e0400003d
:020000040000fa
:040180003e04000039
:020000040000fa
:040184003e04000035
:020000040000fa
:040188003e04000031
:020000040000fa
:04018c003e0400002d
:020000040000fa
:040190003e04000029
:020000040000fa
:040194003e04000025
:020000040000fa
:040198003e04000021
:020000040000fa
:04019c003e0400001d
:020000040000fa
:0401a0003e04000019
:020000040000fa
:0401a4003e04000015
:020000040000fa
:0401a8003e04000011
:020000040000fa
:0401ac003e0400000d
:020000040000fa
:0401b0003e04000009
:020000040000fa
:0401b4003e04000005
:020000040000fa
:0401b8003e04000001
:020000040000fa
:0401bc003e040000fd
:020000040000fa
:0401c0003e040000f9
:020000040000fa
:0401c4003e040000f5
:020000040000fa
:0401c8003e040000f1
:020000040000fa
:0401cc003e040000ed
:020000040000fa
:0401d0003e040000e9
:020000040000fa
:0401d4003e040000e5
:020000040000fa
:0401d8003e040000e1
:020000040000fa
:0401dc003e040000dd
:020000040000fa
:0401e0003e040000d9
:020000040000fa
:0401e4003e040000d5
:020000040000fa
:0401e8003e040000d1
:020000040000fa
:0401ec003e040000cd
:020000040000fa
:0401f0003e040000c9
:020000040000fa
:0401f4003e040000c5
:020000040000fa
:0401f8003e040000c1
:020000040000fa
:0401fc003e040000bd
:020000040000fa
:040200003e040000b8
:020000040000fa
:040204003e040000b4
:020000040000fa
:040208003e040000b0
:020000040000fa
:04020c003e040000ac
:020000040000fa
:040210003e040000a8
:020000040000fa
:040214003e040000a4
:020000040000fa
:040218003e040000a0
:020000040000fa
:04021c003e0400009c
:020000040000fa
:040220003e04000098
:020000040000fa
:040224003e04000094
:020000040000fa
:040228003e04000090
:020000040000fa
:04022c003e0400008c
:020000040000fa
:040230003e04000088
:020000040000fa
:040234003e04000084
:020000040000fa
:040238003e04000080
:020000040000fa
:04023c003e0400007c
:020000040000fa
:040240003e04000078
:020000040000fa
:040244003e04000074
:020000040000fa
:040248003e04000070
:020000040000fa
:04024c003e0400006c
:020000040000fa
:040250003e04000068
:020000040000fa
:040254003e04000064
:020000040000fa
:040258003e04000060
:020000040000fa
:04025c003e0400005c
:020000040000fa
:040260003e04000058
:020000040000fa
:040264003e04000054
:020000040000fa
:040268003e04000050
:020000040000fa
:04026c003e0400004c
:020000040000fa
:040270003e04000048
:020000040000fa
:040274003e04000044
:020000040000fa
:040278003e04000040
:020000040000fa
:04027c003e0400003c
:020000040000fa
:040280003e04000038
:020000040000fa
:040284003e04000034
:020000040000fa
:040288003e04000030
:020000040000fa
:04028c003e0400002c
:020000040000fa
:040290003e04000028
:020000040000fa
:040294003e04000024
:020000040000fa
:040298003e04000020
:020000040000fa
:04029c003e0400001c
:020000040000fa
:0402a0003e04000018
:020000040000fa
:0402a4003e04000014
:020000040000fa
:0402a8003e04000010
:020000040000fa
:0402ac003e0400000c
:020000040000fa
:0402b0003e04000008
:020000040000fa
:0402b4003e04000004
:020000040000fa
:0402b8003e04000000
:020000040000fa
:0402bc003e040000fc
:020000040000fa
:0402c0003e040000f8
:020000040000fa
:0402c4003e040000f4
:020000040000fa
:0402c8003e040000f0
:020000040000fa
:0402cc003e040000ec
:020000040000fa
:0402d0003e040000e8
:020000040000fa
:0402d4003e040000e4
:020000040000fa
:0402d8003e040000e0
:020000040000fa
:0402dc003e040000dc
:020000040000fa
:0402e0003e040000d8
:020000040000fa
:0402e4003e040000d4
:020000040000fa
:0402e8003e040000d0
:020000040000fa
:0402ec003e040000cc
:020000040000fa
:0402f0003e040000c8
:020000040000fa
:0402f4003e040000c4
:020000040000fa
:0402f8003e040000c0
:020000040000fa
:0402fc003e040000bc
:020000040000fa
:040300003e040000b7
:020000040000fa
:040304003e040000b3
:020000040000fa
:040308003e040000af
:020000040000fa
:04030c003e040000ab
:020000040000fa
:040310003e040000a7
:020000040000fa
:040314003e040000a3
:020000040000fa
:040318003e0400009f
:020000040000fa
:04031c003e0400009b
:020000040000fa
:040320003e04000097
:020000040000fa
:040324003e04000093
:020000040000fa
:040328003e0400008f
:020000040000fa
:04032c003e0400008b
:020000040000fa
:040330003e04000087
:020000040000fa
:040334003e04000083
:020000040000fa
:100400004f0321000eff26000e01880000000000af
:10041000000020000000e000020032000001200087
:100420002002880014000700310107000000e000ee
:1004300003003a0000ba200001002000020037004b
:100440000000200001002000810f70000100320038
:100450000f000700000020000000e0000200320052
:100460000000020000000000b604020000000000ce
:100470000040da000000fe00200020000000e00044
:1004800002003200100020009001880000000600e9
:10049000a1028800800478000000eb001f003700f4
:1004a000e284440054a0b4009905ba00e2844400f8
:1004b00054a0b4009906ba00e284440054a0b400e9
:1004c0000006eb00476fde00fd07b200ae018800ba
:1004d000636ce10003003a000ad801000000eb0061
:1004e0000e003700606ce10008003a00004deb00a0
:1004f0000a05e800020039003420ec000af0a000f0
:100500008b05e900f9ff3e00040037006168e10057
:10051000010032000086eb000b00070019c7ba008b
:100520001905ba000e04e00003003a000a00e000da
:10053000dbff3a0000000600fe07b200ae028800b2
:100540008a047800f5ff37000cd0a300e20f4d00bd
:100550001c003b0089027800354dba000a05e8000e
:10056000020039003420ec000af0a0008b05e900fd
:100570000f003200254dba000a05e80002003900dc
:100580003420ec000af0a0008b05e90008003200de
:100590000c00e0000600320015cdba000a05e800a4
:1005a000020039003420ec000af0a0008b05e900bd
:1005b0008984e80054a0b4000b00e000e2ff3a0098
:1005c000000006009902ba00055d78008b05e9007d
:1005d000f7ff3200c82ade00055d78008b05e900d0
:1005e000f3ff32000c00e000f1ff320019ddba0029
:1005f000eeff370038080400000000001e0a040067
:1006000000000000a6040400000000003600f8000e
:10061000809fbe00829fbe00849fbe00869fbe005a
:100620000000fa00c028a9000000eb0065040700e4
:100630000080fa004f03be004f02be004f01be0013
:100640004f00be003600f900004006003600f800fa
:10065000809fbe00829fbe00849fbe00869fbe001a
:100660000000fa005c040700c048a9001000200048
:10067000540407000080fa004f03be004f02be0082
:100680004f01be004f00be003600f90000400600da
:100690003600f800809fbe00829fbe00849fbe008f
:1006a000869fbe000000fa00c068a900200020005c
:1006b000440407000080fa004f03be004f02be0052
:1006c0004f01be004f00be003600f900004006009a
:1006d0003600f800809fbe00829fbe00849fbe004f
:1006e000869fbe000000fa00c088a90030002000ec
:1006f000340407000080fa004f03be004f02be0022
:100700004f01be004f00be003600f9000040060059
:100710003600f800809fbe00829fbe00849fbe000e
:10072000869fbe000000fa00c608a90070002000e5
:10073000240407000080fa004f03be004f02be00f1
:100740004f01be004f00be003600f9000040060019
:100750003600f800809fbe00829fbe00849fbe00ce
:10076000869fbe000000fa00214680000010200095
:10077000008060000000e00003003200c508a9000e
:10078000c00020000f0407002046800070006000b9
:100790000000e00003003200c488a900a00020008f
:1007a0000804070020468000610060000000e000af
:1007b00003003200c408a900b000200001040700b3
:1007c000ffff37003600f800809fbe00829fbe000a
:1007d000849fbe00869fbe000000fa00108080004b
:1007e0000000e000020032001080800000000100e4
:1007f0000868a9000080fa004f03be004f02be0047
:100800004f01be004f00be003600f9000040060058
:100810003600f800809fbe00829fbe00849fbe000d
:10082000869fbe000000fa00208080000000e000eb
:10083000020032002080800000000100300321000f
:10084000104078008040e800300321000148780023
:100850002003210011c0b300014878000028a9003e
:100860000080fa004f03be004f02be004f01be00e1
:100870004f00be003600f900004006000040da00dc
:100880000000fe000800fa008e81e8008009780070
:1008900064004700010878006600470002087800fd
:1008a00066004700100f78000a0037006400470018
:1008b0001000780010407800e400470091007800b4
:1008c0000101e800e40047008208780066020700a2
:1008d0001e0fe9001e0078000000e000f3ff3a0060
:1008e00066004700100078000080fa000000060053
:0408f00000000500ff
:020000040000fa
:1008f4000200fa00000f78001e007800e10f50009b
:1009040003003a002be3a8000000000001003700b8
:10091400000000000080fa00000006000200fa0057
:10092400000f78001e007800e10f500003003a0029
:100934002be3a900000000000100370000000000c4
:100944000080fa00000006000000fa009002210076
:10095400104078008040e8009002210001487800af
:100964000080fa00000006000000fa00889fbe0024
:1009740066030700a100070030818000e30f5000e8
:1009840033003200e30f500005003e00e10f500039
:1009940014003200e10f50001e003e000900370031
:1009a400e50f500069003200e50f50005c0039008b
:1009b400e60f500070003200e80f50008c00320047
:1009c4008c003700a17380000020200000806000ac
:1009d4000000e00002003a0010002000308188008e
:1009e400850037009b00070090022100104078002a
:1009f400f04f500006003a009000070090022100da
:100a04008040eb00014878002000200030818800fd
:100a1400790037009302070090022100104078000b
:100a2400e84f500009003a009602070090022100a6
:100a34008040eb0001487800a002210001c1b3000e
:100a44000148780030002000308188006a003700b7
:100a5400a0022100104078000004e00027003200ca
:100a6400608180008000eb00a20221001241780026
:100a74000281fb00710111000002be000203780034
:100a84000603e900030033000402420085824a00a1
:100a9400fbff37000401be0000002000110020000d
:100aa4000202780003017800800178008100780058
:100ab4000300620081006100810478000004780072
:100ac4000800be00e00f5000e08f58000400320020
:100ad40060000700400020003081880003003700d8
:100ae4005c00070050002000308188009002210043
:100af4008040eb00014878000800370060002000c7
:100b040030818800a002210081c0b3000148780030
:100b1400e002210001ccb300014878003600370020
:100b2400520007000004e00007003200a002210088
:100b3400104078008040e900a002210001487800bc
:100b440030002000308188002b0037005e00070051
:100b54000004e00007003200a002210010407800e9
:100b64008040e900a0022100014878003000200004
:100b74003081880020003700a00221001040780056
:100b84000004e00017003200e00221001040780069
:100b94008080fb00a0022100104078000080fb0050
:100ba400690010008008dd00001020000080600053
:100bb4000000e0000400320026000700400020008e
:100bc4003081880003003700220007005000200015
:100bd40030818800900221008040eb0001487800b9
:100be40002003700800020003081880002003700b6
:100bf40000000000000000005fff37000000fa0062
:100c0400604a20000f0207000c0007008002210048
:100c14008040eb0001487800900221008040eb0006
:100c2400014878000000eb0030818800700f20003c
:100c3400608188000080fa00000006000000fa00cd
:100c4400100207001000200034ff07000080fa00a3
:100c5400000006000000fa00020207001000200055
:100c640023ff07000080fa00000006000200fa00db
:100c74000040eb00004f7800900221001040780003
:100c8400e14f500003003a001000200023ff07004a
:100c94000a0037009002210010407800e44f500011
:100ca40006003a00900221008040eb0001487800e1
:100cb400f401070010c0b300004f78001e40780014
:100cc4000080fa00000006000200fa000040eb0079
:100cd400004f78009002210010407800e14f50004e
:100ce40003003a00100020000cff07000a00370040
:100cf4009002210010407800e24f500006003a00b4
:100d0400900221008040eb0001487800dd010700db
:100d140010c0b300004f78001e4078000080fa0035
:100d2400000006000000fa00007c80000080fa0049
:100d3400000006000200fa00faff0700000f780026
:100d44001e007800240007000004e00002003200c6
:100d5400000028007d0007001e0078002c0007001a
:100d64000004e000020032000000240077000700c5
:100d74001e007800360007000004e0000200320084
:100d840000202000710007001e00780040000700ca
:100d94000004e00002003200000820006b0007009d
:100da4001e0078004a0007000004e0000200320040
:100db40000042000650007001e00780054000700ae
:100dc4000004e00002003200000120005f00070080
:100dd4000080fa00000006000400fa008e80e8009b
:100de400800878000040eb00004f78000e80e80097
:100df400100078000000e00002003d0010c0b300c5
:100e0400004f78001e4078000080fa0000000600c1
:100e14000400fa008e80e800800878000040eb00af
:100e2400004f78000e80e800900078000000240055
:100e3400008060000000e0000200320010c0b30037
:100e4400004f78001e4078000080fa000000060081
:100e54000400fa008e80e800800878000040eb006f
:100e6400004f78000e80e8009000780000202000f9
:100e7400008060000000e0000200320010c0b300f7
:100e8400004f78001e4078000080fa000000060041
:100e94000400fa008e80e800800878000040eb002f
:100ea400004f78000e80e8009000780000082000d1
:100eb400008060000000e0000200320010c0b300b7
:100ec400004f78001e4078000080fa000000060001
:100ed4000400fa008e80e800800878000040eb00ef
:100ee400004f78000e80e800900078000004200095
:100ef400008060000000e0000200320010c0b30077
:100f0400004f78001e4078000080fa0000000600c0
:100f14000400fa008e80e800800878000040eb00ae
:100f2400004f78000e80e800100078007000600028
:100f34000000e0000200320010c0b300004f78004f
:100f44001e4078000080fa00000006000200fa004b
:100f5400000f78001e80ea00017c80000100600020
:100f6400007c88000080fa00000006000000fa00ff
:100f7400802fef000080fa00000006000000fa0055
:100f84000023ef000223ef000423ef000623ef0009
:100f94000823ef0000012000501888000c23ef0004
:100fa4000e23ef001023ef001223ef001423ef00b1
:100fb4001623ef001823ef001a23ef001c23ef0081
:100fc4001e23ef002023ef002223ef002423ef0051
:100fd4002623ef002823ef002c23ef002e23ef001d
:100fe4003023ef00c0012000901988008000200009
:100ff400a01988003623ef003823ef003a23ef00ce
:101004003c23ef003e23ef004023ef004223ef0098
:101014004423ef004623ef004823ef004a23ef0068
:101024004c23ef0090062000701a88005023ef0034
:10103400100d2000901a88005423ef005623ef006f
:101044005823ef005a23ef005c23ef008083200035
:10105400090007000868a9002868a8008000280083
:10106400501988000080fa00000006000000fa0011
:101074000080fa00000006000200fa00000f780069
:101084001e007800108088000080fa00000006002e
:101094000000fa000080fa00000006000000fa00d8
:1010a400a140800000202000008060000000e000db
:1010b40002003200f6ff07001528a9000080fa009c
:1010c400000006000000fa000080fa00000006009c
:1010d4000000fa00a1408000004020000080600071
:1010e4000000e00002003200f6ff07001548a900e6
:1010f4000080fa00000006000000fa000080fa00f8
:10110400000006000000fa00a140800000802000da
:10111400008060000000e00002003200f6ff0700db
:101124001568a9000080fa00000006000000fa001b
:101134000080fa00000006000000fa00a1408000d0
:1011440000002100008060000000e0000200320086
:10115400f6ff07001588a9000080fa0000000600c9
:101164000000fa000080fa00000006000000fa0007
:10117400a140800000002200008060000000e00028
:1011840002003200f6ff070015a8a9000080fa004b
:10119400000006000000fa000080fa0000000600cb
:1011a4000000fa00a14080000000240000806000dc
:1011b4000000e00002003200f6ff070015c8a90095
:1011c4000080fa00000006000000fa000008200079
:1011d400001388006222ef006422ef002002200046
:1011e4003013880090012000401388006a22ef0029
:1011f4007422ef007622ef007822ef007a22ef00cb
:101204007c22ef007e22ef008022ef008222ef009a
:101214008422ef0061e2a80060a2a8006082a80016
:101224000080fa00000006000000fa000000000040
:1012340030138000620060000000e000fcff3a0010
:1012440020138000620060000000e0000100320012
:101254006422a90060138000004078000080fa0036
:10126400000006000200fa00004f780000000000b1
:1012740030138000700060000000e000fcff3a00c2
:101284001e80fb00801388000080fa000000060026
:101294000000fa00301380006200600000f0a70034
:1012a4000000ea000000e9004f00de000040780082
:1012b4000080fa00000006000000fa0030138000ed
:1012c400700060000000e00007003a000113800095
:1012d40000022000008060000000e00002003200f4
:1012e40010002000010037000000eb0000407800ef
:1012f4000080fa00000006000000fa0020138000bd
:1013040077800a00000000000080fb0000f0a700c6
:101314000000ea000000ea004f00de000040780010
:101324000080fa00000006000400fa003013800078
:101334008000eb00008fbe001e00be00c001dd0077
:1013440002002000201380008000eb0000007100e8
:10135400818071000080fa00000006000000fa009d
:1013640061e2a80060a2a8006082a8000080fa00e0
:10137400000006000000fa0061e2a90060a2a900d2
:101384006082a9000080fa00000006000000fa0054
:101394000421ef00508c2000400888000021ef0059
:1013a400208080000000e00002003a00e0a120005c
:1013b400240007000028a9002028a80020032100f9
:1013c4008040eb00014878000080fa00000006002d
:1013d4000200fa00000f78009e007800410888009f
:1013e400200321008040eb00014878000080fa00cf
:1013f400000006000000fa00400880000080fa00a7
:10140400000006000200fa00000f78009e00780039
:1014140021088800200321008040eb000148780067
:101424000080fa00000006000000fa002008800096
:101434000080fa00000006000000fa000080fa00b4
:10144400000006000200fa00000f78002028a9001e
:101454009e007800218088002028a8000080fa00df
:10146400000006000000fa00200321008040eb0089
:10147400014878002028a80001e1a8000080fa00b3
:10148400000006000000fa0001e1a9002028a900dc
:101494000080fa00000006000200fa002003210088
:1014a400104f78001e4078000004e0000300320072
:1014b400200321008040eb00014878001e407800a2
:1014c4000080fa00000006000000fa00300321004a
:1014d400104078000080fb000080fa000000060045
:1014e4000000fa00300321008040eb00014878003e
:1014f4000080fa00000006000000fa00062eef004b
:10150400222eef003e2eef0000012400d07288004e
:10151400762eef00f001200010708800d0ff230029
:10152400f07088000080eb00d0718800f0fe2f007e
:10153400b07288000080eb00907388000c2eef00de
:10154400282eef00442eef00602eef007c2eef00db
:101554000a2eef00262eef00422eef005e2eef0043
:101564007a2eef00082eef00242eef00402eef001d
:101574005c2eef00782eef00f00120000070880050
:10158400c0392000e0708800f00c2000c071880091
:1015940000c02200a0728800f00020008073880040
:1015a4000000eb0051052000b1468800a10a20008c
:1015b400b14688000068880030c4b3002aedb70043
:1015c400216d800000fc2f00008060003000b3001b
:1015d400206d88000080200051052000b14688005d
:1015e400a10a2000b1468800006888000080fa0043
:1015f400000006000000fa0010002300307c880080
:1016040060092000407c88008c2fef00100420002b
:10161400507c880010102000707c88006009200035
:10162400807c880010042000907c88009a2fef00b2
:10163400b82fef00ba2fef00be2fef00002def0000
:10164400a02fef00a42fef00a62fef00a82fef008c
:10165400aa2fef00ae2fef00b02fef00b22fef0054
:101664002200200080072000a109200053f8200058
:101674008049780081497800824978000001eb00b4
:10168400600420007105200043f8200080497800a0
:1016940081497800824978000080fa000000060041
:1016a4000000fa00707c8000ee800a000000000058
:1016b4000080fb0000f0a7000000ea000000ea0040
:1016c4004f00de00004078000080fa0000000600b1
:1016d4000200fa00000f780021028000200f200091
:1016e400008060001e007000200288000080fa0064
:1016f400000006000000fa00c3e8a8000000000093
:10170400000000000080fa00000006000000fa005b
:1017140079ff0700b7ff07001c000700aafe0700b7
:1017240016fe070019ff0700f2ff07000002200061
:0c173400e7ff07000080fa00000006003c
:020000040000fa
:1017400006100000200000008000000000100000d3
:101750000200000082000000ffff000002100000f5
:1017600002000000800000003210000002000000b3
:101770008000000004100000020000008000000053
:10178000261000000c000000800000000000000097
:020000040000fa
:101790000000fa0001438000f0ff28000080600094
:1017a00000c0a0000043880001428000f0f82f0034
:1017b000008060000040a000004288000080fa0025
:1017c000000006000200fa00000f78009e0078007a
:1017d00001808800ffff37000000fa006000210050
:1017e00080077800e0012100000188000080fa00f5
:0417f00000000600ef
:020000040000fa
:020000040005f5
:047e0000ffffff0081
:020000040000fa
:020000040005f5
:047e2000ffffff0061
:020000040000fa
:020000040005f5
:047e30007affff00d6
:020000040000fa
:020000040005f5
:047e3800b9ffff008f
:020000040000fa
:020000040005f5
:047e40007f7fff0041
:020000040000fa
:020000040005f5
:047e4800ffffff0039
:020000040000fa
:020000040005f5
:047e5000ddffff0053
:020000040000fa
:020000040005f5
:047e58000000ff0027
:020000040000fa
:020000040005f5
:047e60000000ff001f
:020000040000fa
:020000040005f5
:047e68000000ff0017
:020000040000fa
:020000040005f5
:047e70000000ff000f
:020000040000fa
:020000040005f5
:047e7800ffffff0009
:020000040000fa
:020000040005f5
:047e8000fffcff0004
:020000040000fa
:020000040005f5
:047e8800ffffff00f9
:020000040000fa
:020000040005f5
:047ff800ffffff0088
:020000040000fa
:020000040100f9
:04300000ffffff00cf
:00000001FF
